{
    "contractName": "Airline",
    "abi": [
        {
            "inputs": [],
            "stateMutability": "nonpayable",
            "type": "constructor"
        },
        {
            "anonymous": false,
            "inputs": [
                {
                    "indexed": true,
                    "internalType": "address",
                    "name": "customer",
                    "type": "address"
                },
                {
                    "indexed": false,
                    "internalType": "uint256",
                    "name": "price",
                    "type": "uint256"
                },
                {
                    "indexed": false,
                    "internalType": "string",
                    "name": "flight",
                    "type": "string"
                }
            ],
            "name": "FlightPurchased",
            "type": "event"
        },
        {
            "inputs": [
                {
                    "internalType": "uint256",
                    "name": "flightIdx",
                    "type": "uint256"
                }
            ],
            "name": "buyFlight",
            "outputs": [],
            "stateMutability": "payable",
            "type": "function"
        },
        {
            "inputs": [
                {
                    "internalType": "address",
                    "name": "",
                    "type": "address"
                }
            ],
            "name": "customers",
            "outputs": [
                {
                    "internalType": "uint256",
                    "name": "loyaltyPoints",
                    "type": "uint256"
                },
                {
                    "internalType": "uint256",
                    "name": "totalBoughtFlights",
                    "type": "uint256"
                }
            ],
            "stateMutability": "view",
            "type": "function"
        },
        {
            "inputs": [
                {
                    "internalType": "address",
                    "name": "",
                    "type": "address"
                },
                {
                    "internalType": "uint256",
                    "name": "",
                    "type": "uint256"
                }
            ],
            "name": "customersFlight",
            "outputs": [
                {
                    "internalType": "string",
                    "name": "route",
                    "type": "string"
                },
                {
                    "internalType": "uint256",
                    "name": "price",
                    "type": "uint256"
                }
            ],
            "stateMutability": "view",
            "type": "function"
        },
        {
            "inputs": [
                {
                    "internalType": "address",
                    "name": "",
                    "type": "address"
                }
            ],
            "name": "customersTotalFlight",
            "outputs": [
                {
                    "internalType": "uint256",
                    "name": "",
                    "type": "uint256"
                }
            ],
            "stateMutability": "view",
            "type": "function"
        },
        {
            "inputs": [
                {
                    "internalType": "uint256",
                    "name": "",
                    "type": "uint256"
                }
            ],
            "name": "flights",
            "outputs": [
                {
                    "internalType": "string",
                    "name": "route",
                    "type": "string"
                },
                {
                    "internalType": "uint256",
                    "name": "price",
                    "type": "uint256"
                }
            ],
            "stateMutability": "view",
            "type": "function"
        },
        {
            "inputs": [],
            "name": "generateFlightsInitialData",
            "outputs": [],
            "stateMutability": "nonpayable",
            "type": "function"
        },
        {
            "inputs": [],
            "name": "getAirlineBalance",
            "outputs": [
                {
                    "internalType": "uint256",
                    "name": "",
                    "type": "uint256"
                }
            ],
            "stateMutability": "view",
            "type": "function"
        },
        {
            "inputs": [],
            "name": "getRefundableEther",
            "outputs": [
                {
                    "internalType": "uint256",
                    "name": "",
                    "type": "uint256"
                }
            ],
            "stateMutability": "view",
            "type": "function"
        },
        {
            "inputs": [],
            "name": "getTotalFlights",
            "outputs": [
                {
                    "internalType": "uint256",
                    "name": "",
                    "type": "uint256"
                }
            ],
            "stateMutability": "view",
            "type": "function"
        },
        {
            "inputs": [
                {
                    "internalType": "address",
                    "name": "sender",
                    "type": "address"
                },
                {
                    "components": [
                        {
                            "internalType": "string",
                            "name": "route",
                            "type": "string"
                        },
                        {
                            "internalType": "uint256",
                            "name": "price",
                            "type": "uint256"
                        }
                    ],
                    "internalType": "struct Airline.Flight",
                    "name": "_flight",
                    "type": "tuple"
                }
            ],
            "name": "handleCustomerTransaction",
            "outputs": [],
            "stateMutability": "nonpayable",
            "type": "function"
        },
        {
            "inputs": [],
            "name": "owner",
            "outputs": [
                {
                    "internalType": "address",
                    "name": "",
                    "type": "address"
                }
            ],
            "stateMutability": "view",
            "type": "function"
        },
        {
            "inputs": [],
            "name": "redeemLoyaltyPoints",
            "outputs": [],
            "stateMutability": "nonpayable",
            "type": "function"
        }
    ],
    "bytecode": "60806040526706f05b59d3b200006001553480156200001d57600080fd5b50600080546001600160a01b031916331790556200003a62000040565b6200025d565b60408051608081018252600591810191825264546f6b796f60d81b6060820152908152673782dace9d900000602080830191909152600280546001810182556000829052835180519190920260008051602062000ce58339815191520192620000ae928492910190620001b1565b50602091820151600191820155604080516080810182526009918101918252684d617261636169626f60b81b6060820152908152674563918244f400008184015260028054928301815560008190528151805192949390910260008051602062000ce583398151915201926200012a92849290910190620001b1565b50602091820151600191820155604080516080810182526005918101918252644d69616d6960d81b60608201529081526729a2241af62c00008184015260028054928301815560008190528151805192949390910260008051602062000ce58339815191520192620001a292849290910190620001b1565b50602082015181600101555050565b828054600181600116156101000203166002900490600052602060002090601f016020900481019282620001e9576000855562000234565b82601f106200020457805160ff191683800117855562000234565b8280016001018555821562000234579182015b828111156200023457825182559160200191906001019062000217565b506200024292915062000246565b5090565b5b8082111562000242576000815560010162000247565b610a78806200026d6000396000f3fe6080604052600436106100a75760003560e01c80633b31eeae116100645780633b31eeae14610172578063570a2de2146101875780638da5cb5b146101a7578063a10015e8146101c9578063a43c9341146101e9578063f997114f14610209576100a7565b80630b7abbce146100ac5780630ca97e48146100c357806315ccf70f146100d65780632411ff731461010d57806329cd30b41461012f578063336989ae14610144575b600080fd5b3480156100b857600080fd5b506100c161021e565b005b6100c16100d136600461094d565b6103bc565b3480156100e257600080fd5b506100f66100f136600461094d565b61049c565b6040516101049291906109c4565b60405180910390f35b34801561011957600080fd5b50610122610552565b60405161010491906109e6565b34801561013b57600080fd5b50610122610569565b34801561015057600080fd5b5061016461015f366004610826565b610587565b604051610104929190610a10565b34801561017e57600080fd5b506101226105a0565b34801561019357600080fd5b506100f66101a2366004610924565b6105a6565b3480156101b357600080fd5b506101bc61062d565b60405161010491906109b0565b3480156101d557600080fd5b506101226101e4366004610826565b61063c565b3480156101f557600080fd5b506100c1610204366004610847565b61064e565b34801561021557600080fd5b506100c161071f565b60408051608081018252600591810191825264546f6b796f60d81b6060820152908152673782dace9d90000060208083019190915260028054600181018255600082905283518051919092027f405787fa12a823e0f2b7631cc41b3ba8828b3321ca811111fa75cd3aa3bb5ace019261029b928492910190610769565b50602091820151600191820155604080516080810182526009918101918252684d617261636169626f60b81b6060820152908152674563918244f40000818401526002805492830181556000819052815180519294939091027f405787fa12a823e0f2b7631cc41b3ba8828b3321ca811111fa75cd3aa3bb5ace019261032692849290910190610769565b50602091820151600191820155604080516080810182526005918101918252644d69616d6960d81b60608201529081526729a2241af62c0000818401526002805492830181556000819052815180519294939091027f405787fa12a823e0f2b7631cc41b3ba8828b3321ca811111fa75cd3aa3bb5ace01926103ad92849290910190610769565b50602082015181600101555050565b6000600282815481106103cb57fe5b90600052602060002090600202019050806001015434146103eb57600080fd5b60408051825460606020601f60026000196101006001871615020190941693909304928301819004028301810184529282018181526104989333939286928492909184918401828280156104805780601f1061045557610100808354040283529160200191610480565b820191906000526020600020905b81548152906001019060200180831161046357829003601f168201915b5050505050815260200160018201548152505061064e565b5050565b600281815481106104ac57600080fd5b60009182526020918290206002918202018054604080516001831615610100026000190190921693909304601f8101859004850282018501909352828152909350918391908301828280156105425780601f1061051757610100808354040283529160200191610542565b820191906000526020600020905b81548152906001019060200180831161052557829003601f168201915b5050505050908060010154905082565b336000908152600360205260409020546001540290565b600080546001600160a01b0316331461058157600080fd5b50303190565b6003602052600090815260409020805460019091015482565b60025490565b600460205281600052604060002081815481106105c257600080fd5b60009182526020918290206002918202018054604080516001831615610100026000190190921693909304601f8101859004850282018501909352828152909450925083918301828280156105425780601f1061051757610100808354040283529160200191610542565b6000546001600160a01b031681565b60056020526000908152604090205481565b6001600160a01b038216600090815260036020908152604080832080546005018155600180820180548201905533855260048452918420805492830181558452928290208451805186946002909402909201926106b092849290910190610769565b506020918201516001918201556001600160a01b038516600081815260058452604090819020805490930190925591840151845191517f1a02c9b180301ecb4108648e8e1cd231f2857cc169519367000f7380f57566c49261071292916109ef565b60405180910390a2505050565b3360008181526003602052604080822080546001549251919492029283156108fc02918491818181858888f19350505050158015610761573d6000803e3d6000fd5b505060009055565b828054600181600116156101000203166002900490600052602060002090601f01602090048101928261079f57600085556107e5565b82601f106107b857805160ff19168380011785556107e5565b828001600101855582156107e5579182015b828111156107e55782518255916020019190600101906107ca565b506107f19291506107f5565b5090565b5b808211156107f157600081556001016107f6565b80356001600160a01b038116811461082157600080fd5b919050565b600060208284031215610837578081fd5b6108408261080a565b9392505050565b60008060408385031215610859578081fd5b6108628361080a565b915060208084013567ffffffffffffffff8082111561087f578384fd5b9085019060408288031215610892578384fd5b6040516040810181811083821117156108a757fe5b6040528235828111156108b8578586fd5b8301601f810189136108c8578586fd5b8035838111156108d457fe5b6108e6601f8201601f19168701610a1e565b935080845289868284010111156108fb578687fd5b808683018786013783018501959095529081529082013591810191909152919491935090915050565b60008060408385031215610936578182fd5b61093f8361080a565b946020939093013593505050565b60006020828403121561095e578081fd5b5035919050565b60008151808452815b8181101561098a5760208185018101518683018201520161096e565b8181111561099b5782602083870101525b50601f01601f19169290920160200192915050565b6001600160a01b0391909116815260200190565b6000604082526109d76040830185610965565b90508260208301529392505050565b90815260200190565b600083825260406020830152610a086040830184610965565b949350505050565b918252602082015260400190565b60405181810167ffffffffffffffff81118282101715610a3a57fe5b60405291905056fea264697066735822122078614c48cc3814fac9cfc073dd428ffc42714ddab068b288e29b08208a3ca31b64736f6c63430007040033405787fa12a823e0f2b7631cc41b3ba8828b3321ca811111fa75cd3aa3bb5ace",
    "sourcePath": "/Users/iluiscastillo/Documents/blockchain/training/flight-ether-app/contracts/Airline.sol",
    "compiler": {
        "name": "solc",
        "version": "0.7.4+commit.3f05b770"
    },
    "functionHashes": {
        "buyFlight(uint256)": "0ca97e48",
        "customers(address)": "336989ae",
        "customersFlight(address,uint256)": "570a2de2",
        "customersTotalFlight(address)": "a10015e8",
        "flights(uint256)": "15ccf70f",
        "generateFlightsInitialData()": "0b7abbce",
        "getAirlineBalance()": "29cd30b4",
        "getRefundableEther()": "2411ff73",
        "getTotalFlights()": "3b31eeae",
        "handleCustomerTransaction(address,(string,uint256))": "a43c9341",
        "owner()": "8da5cb5b",
        "redeemLoyaltyPoints()": "f997114f"
    },
    "gasEstimates": {
        "creation": {
            "codeDepositCost": "536000",
            "executionCost": "infinite",
            "totalCost": "infinite"
        },
        "external": {
            "buyFlight(uint256)": "infinite",
            "customers(address)": "2196",
            "customersFlight(address,uint256)": "infinite",
            "customersTotalFlight(address)": "1318",
            "flights(uint256)": "infinite",
            "generateFlightsInitialData()": "infinite",
            "getAirlineBalance()": "1861",
            "getRefundableEther()": "1971",
            "getTotalFlights()": "1028",
            "handleCustomerTransaction(address,(string,uint256))": "infinite",
            "owner()": "1114",
            "redeemLoyaltyPoints()": "infinite"
        }
    }
}